{
  "contractName": "TodoList",
  "abi": [
    {
      "anonymous": false,
      "inputs": [
        {
          "indexed": false,
          "internalType": "string",
          "name": "text",
          "type": "string"
        },
        {
          "indexed": false,
          "internalType": "uint256",
          "name": "index",
          "type": "uint256"
        }
      ],
      "name": "TodoAdded",
      "type": "event"
    },
    {
      "anonymous": false,
      "inputs": [
        {
          "indexed": false,
          "internalType": "uint256",
          "name": "index",
          "type": "uint256"
        },
        {
          "indexed": false,
          "internalType": "string",
          "name": "newText",
          "type": "string"
        }
      ],
      "name": "TodoEdited",
      "type": "event"
    },
    {
      "anonymous": false,
      "inputs": [
        {
          "indexed": false,
          "internalType": "uint256",
          "name": "index",
          "type": "uint256"
        }
      ],
      "name": "TodoRemoved",
      "type": "event"
    },
    {
      "anonymous": false,
      "inputs": [
        {
          "indexed": false,
          "internalType": "uint256",
          "name": "index",
          "type": "uint256"
        },
        {
          "indexed": false,
          "internalType": "bool",
          "name": "completed",
          "type": "bool"
        }
      ],
      "name": "TodoToggled",
      "type": "event"
    },
    {
      "inputs": [
        {
          "internalType": "uint256",
          "name": "",
          "type": "uint256"
        }
      ],
      "name": "todos",
      "outputs": [
        {
          "internalType": "string",
          "name": "text",
          "type": "string"
        },
        {
          "internalType": "bool",
          "name": "completed",
          "type": "bool"
        }
      ],
      "stateMutability": "view",
      "type": "function"
    },
    {
      "inputs": [
        {
          "internalType": "string",
          "name": "_text",
          "type": "string"
        }
      ],
      "name": "addTodo",
      "outputs": [],
      "stateMutability": "nonpayable",
      "type": "function"
    },
    {
      "inputs": [
        {
          "internalType": "uint256",
          "name": "_index",
          "type": "uint256"
        }
      ],
      "name": "toggleTodo",
      "outputs": [],
      "stateMutability": "nonpayable",
      "type": "function"
    },
    {
      "inputs": [
        {
          "internalType": "uint256",
          "name": "_index",
          "type": "uint256"
        }
      ],
      "name": "removeTodo",
      "outputs": [],
      "stateMutability": "nonpayable",
      "type": "function"
    },
    {
      "inputs": [
        {
          "internalType": "uint256",
          "name": "_index",
          "type": "uint256"
        },
        {
          "internalType": "string",
          "name": "_newText",
          "type": "string"
        }
      ],
      "name": "editTodo",
      "outputs": [],
      "stateMutability": "nonpayable",
      "type": "function"
    },
    {
      "inputs": [],
      "name": "getTodos",
      "outputs": [
        {
          "components": [
            {
              "internalType": "string",
              "name": "text",
              "type": "string"
            },
            {
              "internalType": "bool",
              "name": "completed",
              "type": "bool"
            }
          ],
          "internalType": "struct TodoList.Todo[]",
          "name": "",
          "type": "tuple[]"
        }
      ],
      "stateMutability": "view",
      "type": "function"
    },
    {
      "inputs": [],
      "name": "getTodoCount",
      "outputs": [
        {
          "internalType": "uint256",
          "name": "",
          "type": "uint256"
        }
      ],
      "stateMutability": "view",
      "type": "function"
    }
  ],
  "bytecode": "0x608060405234801561001057600080fd5b50610c06806100206000396000f3fe608060405234801561001057600080fd5b506004361061007d5760003560e01c806395ffebf51161005b57806395ffebf5146100c0578063bc8bc2b4146100d3578063c33926cb146100f4578063dc00282c1461010957600080fd5b8063104a7cd8146100825780633be3d70314610098578063901ee0b8146100ad575b600080fd5b6000546040519081526020015b60405180910390f35b6100ab6100a63660046106a1565b61011c565b005b6100ab6100bb36600461075d565b61025c565b6100ab6100ce3660046107a4565b6102ec565b6100e66100e13660046106a1565b61039e565b60405161008f929190610827565b6100fc61045d565b60405161008f919061084b565b6100ab6101173660046106a1565b61055d565b60005481106101465760405162461bcd60e51b815260040161013d906108c3565b60405180910390fd5b805b60005461015790600190610900565b8110156101e557600061016b826001610919565b8154811061017b5761017b61092c565b90600052602060002090600202016000828154811061019c5761019c61092c565b60009182526020909120600290910201806101b783826109cb565b506001918201549101805460ff191660ff9092161515919091179055806101dd81610aac565b915050610148565b5060008054806101f7576101f7610ac5565b60008281526020812060001990920191600283020190610217828261064b565b50600101805460ff1916905590556040518181527f5a8b45a14235305206ebbc93f126e7c8541c0e32594d0a2c9e983bb48ad28a49906020015b60405180910390a150565b600054821061027d5760405162461bcd60e51b815260040161013d906108c3565b80600083815481106102915761029161092c565b906000526020600020906002020160000190816102ae9190610adb565b507f65563fbc0fcc7db790b4d7a946d10205f03bf179fc402789ea24cfdcefe9d86f82826040516102e0929190610b95565b60405180910390a15050565b604080518082019091528181526000602082018190528054600181018255908052815160029091027f290decd9548b62a8d60345a988386fc84ba6bc95484008f6362f93160ef3e563019081906103439082610adb565b50602091909101516001918201805460ff19169115159190911790556000547fc02c72682217049dbe6c35c7ff908ffa980cbbc28bc2f4d72e2c45d5cdcd3a299183916103909190610900565b604051610251929190610bae565b600081815481106103ae57600080fd5b90600052602060002090600202016000915090508060000180546103d190610942565b80601f01602080910402602001604051908101604052809291908181526020018280546103fd90610942565b801561044a5780601f1061041f5761010080835404028352916020019161044a565b820191906000526020600020905b81548152906001019060200180831161042d57829003601f168201915b5050506001909301549192505060ff1682565b60606000805480602002602001604051908101604052809291908181526020016000905b8282101561055457838290600052602060002090600202016040518060400160405290816000820180546104b490610942565b80601f01602080910402602001604051908101604052809291908181526020018280546104e090610942565b801561052d5780601f106105025761010080835404028352916020019161052d565b820191906000526020600020905b81548152906001019060200180831161051057829003601f168201915b505050918352505060019182015460ff161515602091820152918352929092019101610481565b50505050905090565b600054811061057e5760405162461bcd60e51b815260040161013d906108c3565b600081815481106105915761059161092c565b60009182526020822060016002909202010154815460ff909116159190839081106105be576105be61092c565b906000526020600020906002020160010160006101000a81548160ff0219169083151502179055507fb50a16255ec610e07f1e0b3a7b9aa1d91e047f81010699695a0cbea58f5d2ba0816000838154811061061b5761061b61092c565b6000918252602090912060016002909202010154604051610251929160ff16909182521515602082015260400190565b50805461065790610942565b6000825580601f10610667575050565b601f0160209004906000526020600020908101906106859190610688565b50565b5b8082111561069d5760008155600101610689565b5090565b6000602082840312156106b357600080fd5b5035919050565b634e487b7160e01b600052604160045260246000fd5b600082601f8301126106e157600080fd5b813567ffffffffffffffff808211156106fc576106fc6106ba565b604051601f8301601f19908116603f01168101908282118183101715610724576107246106ba565b8160405283815286602085880101111561073d57600080fd5b836020870160208301376000602085830101528094505050505092915050565b6000806040838503121561077057600080fd5b82359150602083013567ffffffffffffffff81111561078e57600080fd5b61079a858286016106d0565b9150509250929050565b6000602082840312156107b657600080fd5b813567ffffffffffffffff8111156107cd57600080fd5b6107d9848285016106d0565b949350505050565b6000815180845260005b81811015610807576020818501810151868301820152016107eb565b506000602082860101526020601f19601f83011685010191505092915050565b60408152600061083a60408301856107e1565b905082151560208301529392505050565b60006020808301818452808551808352604092508286019150828160051b87010184880160005b838110156108b557888303603f1901855281518051878552610896888601826107e1565b9189015115159489019490945294870194925090860190600101610872565b509098975050505050505050565b6020808252600d908201526c092dcecc2d8d2c840d2dcc8caf609b1b604082015260600190565b634e487b7160e01b600052601160045260246000fd5b81810381811115610913576109136108ea565b92915050565b80820180821115610913576109136108ea565b634e487b7160e01b600052603260045260246000fd5b600181811c9082168061095657607f821691505b60208210810361097657634e487b7160e01b600052602260045260246000fd5b50919050565b601f8211156109c657600081815260208120601f850160051c810160208610156109a35750805b601f850160051c820191505b818110156109c2578281556001016109af565b5050505b505050565b8181036109d6575050565b6109e08254610942565b67ffffffffffffffff8111156109f8576109f86106ba565b610a0c81610a068454610942565b8461097c565b6000601f821160018114610a405760008315610a285750848201545b600019600385901b1c1916600184901b178455610aa5565b600085815260209020601f19841690600086815260209020845b83811015610a7a5782860154825560019586019590910190602001610a5a565b5085831015610a985781850154600019600388901b60f8161c191681555b50505060018360011b0184555b5050505050565b600060018201610abe57610abe6108ea565b5060010190565b634e487b7160e01b600052603160045260246000fd5b815167ffffffffffffffff811115610af557610af56106ba565b610b0381610a068454610942565b602080601f831160018114610b385760008415610b205750858301515b600019600386901b1c1916600185901b1785556109c2565b600085815260208120601f198616915b82811015610b6757888601518255948401946001909101908401610b48565b5085821015610b855787850151600019600388901b60f8161c191681555b5050505050600190811b01905550565b8281526040602082015260006107d960408301846107e1565b604081526000610bc160408301856107e1565b9050826020830152939250505056fea264697066735822122028d9a807afa356d4cb6e9a860a6a7e16e2dff23fcc92a11a6a7684c11d714ac864736f6c63430008130033",
  "immutableReferences": {},
  "source": "// SPDX-License-Identifier: MIT\r\npragma solidity ^0.8.0;\r\n\r\ncontract TodoList {\r\n    \r\n    struct Todo {\r\n        string text;\r\n        bool completed;\r\n    }\r\n\r\n    Todo[] public todos;\r\n\r\n    // Event to notify when a todo is added\r\n    event TodoAdded(string text, uint256 index);\r\n    // Event to notify when a todo is toggled (completed/incomplete)\r\n    event TodoToggled(uint256 index, bool completed);\r\n    // Event to notify when a todo is removed\r\n    event TodoRemoved(uint256 index);\r\n    // Event to notify when a todo is edited\r\n    event TodoEdited(uint256 index, string newText);\r\n\r\n    // Add a new todo\r\n    function addTodo (string memory _text) public {\r\n        todos.push(Todo({\r\n            text: _text,\r\n            completed: false\r\n        }));\r\n        emit TodoAdded(_text, todos.length - 1);\r\n    }\r\n\r\n    // Toggle the completion status of a todo\r\n    function toggleTodo (uint256 _index) public {\r\n        require(_index < todos.length, \"Invalid index\");\r\n        todos[_index].completed = !todos[_index].completed;\r\n        emit TodoToggled(_index, todos[_index].completed);\r\n    }\r\n\r\n    // Remove a todo by index\r\n    function removeTodo (uint256 _index) public {\r\n        require(_index < todos.length, \"Invalid index\");\r\n\r\n        for (uint i = _index; i < todos.length - 1; i++) {\r\n            todos[i] = todos[i + 1];\r\n        }\r\n        todos.pop();  // Remove the last element after shifting\r\n        emit TodoRemoved(_index);\r\n    }\r\n\r\n    // Edit an existing todo's text\r\n    function editTodo (uint256 _index, string memory _newText) public {\r\n        require(_index < todos.length, \"Invalid index\");\r\n        todos[_index].text = _newText;\r\n        emit TodoEdited(_index, _newText);\r\n    }\r\n\r\n    // Get all todos\r\n    function getTodos () public view returns (Todo[] memory) {\r\n        return todos;\r\n    }\r\n\r\n    // Get the total number of todos\r\n    function getTodoCount () public view returns (uint256) {\r\n        return todos.length;\r\n    }\r\n}\r\n",
  "sourcePath": "G:\\projects\\React\\dapp-todo-final-deploy\\contracts\\TodoList.sol",
  "compiler": {
    "name": "solc",
    "version": "0.8.19+commit.7dd6d404.Emscripten.clang"
  },
  "schemaVersion": "3.4.16",
  "updatedAt": "2024-10-01T13:59:23.938Z",
  "devdoc": {
    "kind": "dev",
    "methods": {},
    "version": 1
  },
  "userdoc": {
    "kind": "user",
    "methods": {},
    "version": 1
  }
}